S0160000455345353136204D41494E2046572E7372656393
S214000000B86F002005C30000FDC30000FDC300005C
S21400001000000000000000000000000000000000DB
S214000020000000000000000000000000A55A0000CC
S2140000300000000000000000C15B0000095C00003A
S214000040FDC30000FDC30000FDC30000F99F0000D3
S214000050299C0000FDC30000FDC30000FDC3000096
S214000060FDC300009DA60000B5A60000CDA60000BA
S214000070E5A60000FDA6000015A700004DC2000082
S21400008061C2000075C2000099380000AD3800005B
S214000090C13800000000000000000000FDC30000A2
S2140000A0FDC30000FDC30000FDC30000FDC300004B
S2140000B00000000010B5064C2378002B07D1054B36
S2140000C0002B02D0044800E000BF0123237010BDBF
S2140000D0000200200000000058100100084B10B578
S2140000E0002B03D00749084800E000BF0748036814
S2140000F0002B00D110BD064B002BFBD09847F9E72C
S21400010000000000040200205810010058100100F2
S2140001100000000080B584B000AF02003960FB1D0F
S2140001201A700C23FB181C4A1188198092789A7052
S2140001301A4B10221A70194B0C22BA185A60174B19
S2140001400322DA81154B3A689A60144B03229A818F
S2140001500F23FB1800221A7096235A000F4B00211B
S21400016018000F4B984702000F23FB181A700F2336
S214000170FB181B78002B07D00F23FB181A78094BA7
S21400018019000320084B98470F23FB181B7818000C
S214000190BD4604B080BDC046F4F0000078380020AC
S2140001A0D9190000C8F00000D597000080B582B0CD
S2140001B000AF134B19000020124B9847BB1D80223E
S2140001C012011A80BB1D1B88190000200E4B984791
S2140001D003003B603B68002B07D03A680B4B1900C6
S2140001E00320084B98473B6805E0094B19000020A0
S2140001F0044B984700231800BD4602B080BDC04699
S214000200F8F00000D59700000503000014F1000088
S21400021044F1000090B585B000AF0200BB1D1A8007
S214000220BB1D1B88DAB20F23FB180F210A401A7079
S214000230BB1D1B881B099BB2DAB20E23FB180F21CD
S2140002400A401A70BB1D1B881B0A9BB2DAB20D232C
S214000250FB180F210A401A70BB1D1B881B0B9BB294
S214000260DAB20C23FB180F210A401A700F23FB1872
S2140002701B7899B20D23FB181B789AB20C23FB1837
S2140002801B789BB21B019BB2D3189BB21B019AB280
S2140002900E23FB181B789BB2D3189BB21B019AB295
S2140002A00A23FB188A181A80104B0A22BA181288DA
S2140002B01A800A23FB181A880D4B100098470D4A1F
S2140002C00D4B111C9847031C1A1C0C4B101C98470E
S2140002D003000C000A4A13605460094B5C681B68F4
S2140002E018002100BD4605B090BDC0461C02002087
S2140002F001CB0000FAEDEB3C81C800002DE40000C5
S2140003008838002080B584B000AF0200FB1D1A704C
S2140003103B1D0A1C1A800C23FB18FA1D12781A7053
S2140003203B1D1B88DAB20C23FB185A703B1D1B883A
S2140003301B0A9BB2DAB20C23FB189A700C4B2022D5
S2140003401A700B4B0C22BA185A60094B0322DA813A
S214000350074B00229A8196235A00054B110018007D
S214000360044B984703001800BD4604B080BDC04645
S214000370783800208518000080B584B000AF78601B
S2140003807B681B68FB60FB68DB69072213405A1E0C
S2140003909341DBB21800BD4604B080BD80B582B084
S2140003A000AF7860C0467B681800044B9847031E71
S2140003B0F9D1C046BD4602B080BDC04679030000F4
S2140003C080B584B000AF78607B681B68FB60FB6814
S2140003D01B681B01DB0FDBB21A000B23FB18511E38
S2140003E08A411A700823FB187A68528B1A807B6839
S2140003F09B8B9AB20823FB180821791809888A1A59
S2140004001A807B689B8B9BB2013B9AB27B689A836F
S2140004100B23FB181B78002B10D07B68DB7A002B95
S2140004201CD07B689B8B9BB2012B17D1FB685B684B
S2140004308022D2021A43FB685A600FE07B68DB7AA0
S214000440002B0BD07B689B8B9BB2002B06D1FB68E6
S2140004505B688022D2021A43FB685A607B689B8BDB
S2140004609BB2002B0ED17B689B7A002B0AD07B6850
S21400047018000E4B9847FB685B68C02292021A432E
S214000480FB685A607B681800084B98477B681A6AB6
S2140004900823FB181B88D318FA682821525CD2B2AE
S2140004A01A70C046BD4604B080BDC0469D0300001D
S2140004B080B584B000AF78607B681B68FB60FB6823
S2140004C05B8B9BB21A000423134004D07B68252262
S2140004D01E21995424E00A23FB187A68528B1A804E
S2140004E07B689B8B9AB20A23FB180A217918098825
S2140004F08A1A1A807B689B8B9BB2013B9AB27B68F8
S2140005009A837B681800084B98477B681A6A0A2308
S214000510FB181B88D3181B78D9B2FB68282299547D
S214000520BD4604B080BDC0469D03000080B584B0C3
S21400053000AF78607B681B68FB60FB681B7EDBB2E5
S2140005401A00012313402BD0FB6801221A76FB68A1
S2140005505B8B9BB21A000223134004D07B682522D3
S214000560412199541CE0FB685B8B9BB21A00042364
S214000570134015D07B682522182199547B680022E9
S2140005809A837B689B7A002B0AD07B681800134BF3
S2140005909847FB685B68C02292021A43FB685A6061
S2140005A07B689B8B9AB27B685A837B6825229B5C10
S2140005B0DBB2052B0ED17B6824229B5CDBB2002BC2
S2140005C004D17B681800064B984703E07B68180048
S2140005D0044B9847C046BD4604B080BD9D0300004E
S2140005E0B1040000C103000080B584B000AFF8601D
S2140005F0B960FB1D1A70FB1D1B78FA6802339B005E
S214000600D3180433BA681A60FB681B7EDBB25AB292
S214000610FB1D1B78012199400B005BB213435BB2B4
S214000620DAB2FB681A76C046BD4604B080BD00004C
S21400063090B587B000AF786039607B681B683B6117
S2140006403B685A687B681A623B685A887B689A835C
S2140006507B682422012199547B6825220521995420
S2140006603B691B681B01DB0FDBB21A000F23FB186C
S214000670511E8A411A703B685B7A002B06D03B6895
S2140006809A7A7B68110018003B4B98470F23FB189B
S2140006901B78002B0BD03B685B88012B07D13B698E
S2140006A05B688022D2021A433B695A6005E03B69C8
S2140006B05B68324A1A403B695A603B681B7A002BDB
S2140006C045D03B681B885A003B685B7A9B03134304
S2140006D01A0080231B021A433B695A621723FC1830
S2140006E07B681800264B9847030023703B695B68BD
S2140006F0224A1A403B695A601723FB181B78002BC6
S21400070007D11723FC187B6818001E4B9847030078
S21400071023701723FB181B78002B14D13B69032288
S2140007209A753B681B881B0A9BB2782213439BB2C0
S2140007305A003B685B7A9B031343012213431A005B
S2140007403B695A6212E01723FB181B780FE03B69DF
S21400075003229A753B681B885B0001221A433B689C
S2140007605B7A9B0313431A003B695A620023180006
S214000770BD4607B090BDC04645380000FFFFFBFFF2
S214000780E73700008937000080B582B000AF786098
S21400079039607B689B8B9BB2002B01D005230CE055
S2140007A07B6801229A727B680122DA723A687B685B
S2140007B011001800034B984703001800BD4602B00E
S2140007C080BDC0463106000080B584B000AF7860BA
S2140007D039607B681B68FB603B685B7A002B06D041
S2140007E03B689A7A7B68110018001E4B9847FB6896
S2140007F05B681D4A1A40FB685A603B685A687B680B
S2140008001A623B685A887B689A837B682422002198
S21400081099547B68252205219954FB6803229A7512
S2140008203B681B7A002B0DD03B681B885A003B6840
S2140008305B7A9B0313431A0080231B021A43FB6850
S2140008405A6209E03B681B885A003B685B7A9B0348
S21400085013431A00FB685A6200231800BD4604B012
S21400086080BDC04645380000FFFFFBFF80B582B064
S21400087000AF786039607B689B8B9BB2002B01D001
S21400088005230CE07B6801229A727B680122DA72EB
S2140008903A687B6811001800034B9847030018005D
S2140008A0BD4602B080BDC046C907000080B582B014
S2140008B000AF786039607B689B8B9BB2002B01D0C1
S2140008C005230CE07B6800229A727B680122DA72AC
S2140008D03A687B6811001800034B9847030018001D
S2140008E0BD4602B080BDC046C907000080B586B0D0
S2140008F000AF0200FB1D1A70FB1D1A78934B920086
S214000900D3587B617B691B683B613B691B681B0195
S214000910DB0FDBB21A000F23FB18511E8A411A7038
S2140009200E23FB187A69527E1A707B691B7EDAB238
S2140009300E23FB180E21791809780A401A707B6975
S2140009405B8B9BB2002B09D17B699B8B9BB2002BE8
S21400095004D07B6918007E4B984770E07B695B8B00
S2140009609BB2002B39D07B699B8B9BB2002B34D17A
S2140009707B6925229B5CDBB2052B2ED17B6924226A
S2140009809B5CDBB2002B28D13B6903221A757B697E
S21400099000225A837B692522002199547B699B7A21
S2140009A0002B0BD07B6918006A4B98473B695B6845
S2140009B0C02292021A433B695A6002E03B69012258
S2140009C01A760E23FB181B780122134037D07B695A
S2140009D0DB687A691000984731E07B695B8B9BB2D5
S2140009E0002B2CD07B699B8B9BB2002B27D03B69BE
S2140009F05B8B9BB21A002023134011D10F23FB18E8
S214000A001B7801225340DBB2002B04D17B699B8B01
S214000A109BB2012B04D07B692522412199540EE01C
S214000A207B6924229B5CDBB2002B04D17B69180017
S214000A30494B984703E07B691800484B98477B6909
S214000A405B8B9BB2002B47D07B699B8B9BB2002BAA
S214000A5042D17B6925229B5CDBB2052B3CD17B69AE
S214000A6024229B5CDBB2012B36D13B691B7EDBB2BA
S214000A701A000223134002D03B6902221A763B6911
S214000A8003221A757B6900225A837B69252200217E
S214000A9099540E23FB181B78022213400BD07B6957
S214000AA024229B5CDBB2012B05D17B691B697A692A
S214000AB01000984710E00E23FB181B780122134005
S214000AC00AD07B6924229B5CDBB2002B04D17B69B5
S214000AD0DB687A69100098477B6925229B5CDBB24D
S214000AE0052B2ED07B6925229B5CDBB2002B28D001
S214000AF03B6903221A757B6900225A837B690022B0
S214000B009A837B6925229B5CDBB2412B0ED07B69E6
S214000B109B7A002B0AD07B6918000E4B98473B69DE
S214000B205B68E022D2021A433B695A600E23FB1828
S214000B301B780422134004D07B695B697A69100035
S214000B409847C046BD4606B080BDC046504E002001
S214000B502D0500009D030000B1040000C103000045
S214000B6080B500AFBFF34F8F024B034ADA60BFF386
S214000B704F8FFEE700ED00E00400FA0580B500AFF9
S214000B80024B9847C046BD4680BDC046610B00007C
S214000B9080B586B000AF7860974B1800974B9847A3
S214000BA0974B1800954B9847964B1800934B9847D1
S214000BB0954B1800914B9847944B18008F4B9847CD
S214000BC01723FB1800221A70914B1800914B984778
S214000BD0032200210120904B984702008F4B1A6099
S214000BE08E4B1B68002B07D18D4B190003208D4BB5
S214000BF0984700208C4B98470C23FB1818008B4B0B
S214000C0098470C23FB181B780A2B04D00C23FB18E0
S214000C101B780D2B37D1864B18007E4B9847854B9B
S214000C2000221A70844B00221A708449844B3122A9
S214000C301800844B9847824B3122002199548249F0
S214000C407E4B64221800814B984703003B617E4B25
S214000C506322002199547C4B18006E4B98473B69E1
S214000C60002BECD11723FB1800221A70734B32228C
S214000C7000211800764B9847734B64220021180019
S214000C80734B9847B6E06B4B1B78002B59D06A4BDA
S214000C901B78032B0CD8684B1B785A1CD1B2664ABB
S214000CA011701A000C23FB1819786A4B995405E04A
S214000CB0604B00221A70604B00221A705E4B1B7845
S214000CC0012B99D9644A634B11001800634B98476F
S214000CD0031E2FD06249594B1B221800614B9847C0
S214000CE0564B18004B4B98471723FB1800221A70D8
S214000CF0524B322200211800554B984750494F4B13
S214000D00312218004F4B98474C4B1800564B9847CB
S214000D100300302B06D84A4B1800534B9847030065
S214000D20DAB200E031221723FB181A70434B180082
S214000D30384B98473F4B00221A703F4B00221A70E0
S214000D405AE70C23FB181B780D2B00D154E70C2315
S214000D50FB181B78082B04D00C23FB181B787F2B62
S214000D601CD10823FB18414A12681A600823FB1896
S214000D701800284B98471723FB181B78002B38D0F1
S214000D801723FB181A781723FB18013A1A70172333
S214000D90FB181B78294A0021D1542AE00C23FB18A3
S214000DA01B781B2B06D1234B01221A70224B0022E4
S214000DB01A7021E71723FB181B78312B0FD817233F
S214000DC0FB181B780C22BA18127851B21B4AD15461
S214000DD01723FB181A781723FB1801321A700C23F6
S214000DE0FB1800225A700C23FB181800094B984772
S214000DF002E7C04600E7C04624F400008D39000034
S214000E0064F4000034F4000044F4000054F40000DD
S214000E1068F10000E9960000455E0000D838002022
S214000E20ACF20000D5970000257C0000710E000093
S214000E30CCF20000300200203102002068020020C0
S214000E403402002021E800009C020020FD3900004A
S214000E5087E5000000030020D0F20000B5E70000A0
S214000E60D4F2000071E70000F1E70000DCF20000B9
S214000E7080B584B000AF78607B6818000B4B98474D
S214000E800300FB60FB6801330BD1094B1A68012392
S214000E905B4219001000074B98477B681800034B0D
S214000EA09847C046BD4604B080BDC0468597000042
S214000EB0D8380020FD6D000080B500AF0A4B002238
S214000EC01A600A4B1B68084A11001800084B98471E
S214000ED0054B1B68002B03D0064B802252051A6078
S214000EE0C046BD4680BDC04604030020D83800205A
S214000EF07567000004ED00E0B0B588B002AFF8609A
S214000F00B9607A602E4B984703007B611323FA186A
S214000F107B69110018002B4B98471323FB181B788E
S214000F20002B41D0284B062200211800274B98475B
S214000F30254A7B6911001800254B9847224B002252
S214000F409B5E1800234B9847021C234B1A601E4BCF
S214000F5002229B5E18001F4B9847021C1E4B5A60CD
S214000F60194B04229B5E18001A4B9847021C1A4B1A
S214000F709A60194B1A68194B101C98470500164BB7
S214000F805A68164B101C98470400134B9A68134B6C
S214000F90101C98470300124AB968F8680193009439
S214000FA02B00104CA04705E00F4AB968FB681800F4
S214000FB00C4B984700231800BD4606B0B0BDC0468F
S214000FC011290000FD2200000803002087E500002C
S214000FD0392300008D1B000010030020C1CA00004A
S214000FE0E0F200000DE7000004F3000090B587B0C3
S214000FF000AFF860B9607A601723FB181B221A70DE
S2140010001723FB181B78084A08480F21084CA047EE
S214001010064AB968FB681800054B98470023180075
S214001020BD4607B090BDC04618F300002002002061
S2140010300DE7000080B584B000AFF860B9607A6054
S214001040034B984700231800BD4604B080BDC04639
S2140010507D0B0000F0B591B004AFF860B9607A601F
S2140010602023FA187B6801211800424B984703009A
S214001070FB62FB6A1800404B984702002B23FB18C4
S2140010801A701C23FA187B6802211800394B9847FF
S2140010900300FB62FB6A1800374B984702002A23BE
S2140010A0FB181A701823FA187B6803211800314BB6
S2140010B098470300FB62FB6A18002F4B9847020014
S2140010C02923FB181A701423FA187B6804211800C9
S2140010D0284B98470300FB62FB6A1800264B98478C
S2140010E002002823FB181A702B23FB181B780F2BE3
S2140010F007D9224AB968FB681800214B9847002395
S21400110034E02823FB181C782923FB181A782A2396
S214001110FB1819782B23FB1818782300194CA047C6
S21400112003007B62184B98477B6A002B17D12B2352
S214001130FB181E782A23FB181B782922BA18127867
S214001140282179180978114DBC68F8680291019237
S214001150009333002A002100094CA04705E07B6A73
S2140011600B4AB968F868064CA04700231800BD462D
S2140011700DB0F0BD253B00000DE5000020F300009B
S2140011800DE70000BD2C0000912D00003CF3000090
S21400119060F30000F0B599B004AFF860B9607A600B
S2140011A02C4B1B7801225340DBB2002B11D02A4B6C
S2140011B098470300FB64FB6C002B07D0FB6C274AA8
S2140011C0B968F868264CA04700233FE0214B01226F
S2140011D01A702C23FB1819000520224B9847031E73
S2140011E003D0214B1800214B98472C23FB185B7823
S2140011F01B021AB22C23FB181B781BB213431AB21D
S2140012004A23FB181A804A23FB181B881800184B21
S214001210984703000C003B647C642C23FB185B7827
S2140012201E002C23FB181B781D004A23FB181B8866
S2140012304A22BA1812880F4CB968F86802920193CD
S214001240009533002200064CA04700231800BD4638
S21400125015B0F0BD1C030020AD01000078F30000BF
S2140012600DE7000015010000A8F30000E996000055
S21400127015020000C4F3000080B582B000AF020083
S214001280FB1D1A70064BFA1D127811001F220A4029
S214001290012191400A001A60C046BD4602B080BDDA
S2140012A000E100E080B584B000AF78607B681B6822
S2140012B0FB60FB68DB69072213405A1E9341DBB2D2
S2140012C01800BD4604B080BD80B582B000AF78601F
S2140012D0C0467B681800044B9847031EF9D1C046E9
S2140012E0BD4602B080BDC046A512000080B582B0E3
S2140012F000AF78607B6864221A607B681B4A5A607D
S2140013007B6800229A607B6800221A737B68002242
S2140013101A767B68802292031A617B680122524209
S214001320DA827B68012252429A827B680022DA6166
S2140013307B6800221A627B682422002199547B680D
S21400134000229A627B682C22002199547B682D2209
S214001350002199547B682E22002199547B68D7225D
S2140013601A86C046BD4602B080BDC046480D000085
S21400137080B584B000AF78607B681B68BB600023D4
S214001380FB607B681800144B9847BB681B680222FA
S2140013901A43BB681A607B681B6818000F4B984797
S2140013A0030018000E4B98470CE0FB680133FB6007
S2140013B07B68DB881A00FB689A4203D8BB68102259
S2140013C05A8306E0BB685B8B9BB21A00102313405F
S2140013D0EBD0BD4604B080BDC912000059A600007F
S2140013E07912000080B582B000AF78600A00FB1C5E
S2140013F01A707B685B7EDBB25AB2FB1C1B7801213D
S21400140099400B005BB213435BB2DAB27B685A7644
S214001410C046BD4602B080BD90B591B000AF002377
S214001420FB633A23FB1800221A703B1D1800214B61
S21400143098473B1D204ADA613B1D204A1A623B1D35
S214001440FA229200DA823B23FB1803221A701EE06F
S2140014503A23FC183A1D1A491A4B18001A4B98479B
S214001460030023703A23FB181B78002B04D13A2381
S214001470FB181B78FB630FE0124B1800134B9847C2
S2140014803B23FB181A783B23FB18013A1A703B23C0
S214001490FB181B78002BDBD1FB6B002B04D1094B10
S2140014A018000B4B984700E0C046FB6B1800BD4683
S2140014B011B090BDED120000020008000200090005
S2140014C000080042E0380020ED350000213700001B
S2140014D07113000080B584B000AF78600E4B002218
S2140014E01A700D4B01229A600023FB600B4B1B68A1
S2140014F00C22BA1811001800094B9847094B002215
S2140015001A70FB68002B03D0074B802252051A6026
S214001510C046BD4604B080BD200300200839002028
S214001520756700001D03002004ED00E080B584B060
S21400153000AF78600E4B00221A700D4B01229A60A5
S2140015400023FB600B4B1B680C22BA181100180016
S214001550094B9847094B00221A70FB68002B03D0F2
S214001560074B802252051A60C046BD4604B080BDB7
S2140015702003002008390020756700001D030020A6
S21400158004ED00E080B584B000AF78600E4B00221A
S2140015901A700D4B01225A600023FB600B4B1B6830
S2140015A00C22BA1811001800094B9847094B002264
S2140015B01A70FB68002B03D0074B802252051A6076
S2140015C0C046BD4604B080BD200300200839002078
S2140015D0756700001D03002004ED00E080B500AF35
S2140015E01149124B00221800114B98470F4B00214F
S2140015F01800104B984710490C4B012218000C4B52
S21400160098470A4B012118000A4B98470B49074B8D
S21400161002221800064B9847044B02211800054B7F
S2140016209847C046BD4680BDD5140000E03800206F
S214001630E9050000E51300002D15000085150000E3
S21400164080B582B000AF00237B60144B9847030040
S2140016507B607B68002B1AD1114B98470120114BF9
S21400166098470200104B1A600322002101200F4BFE
S214001670984702000E4B1A600B4B1B68002B03D0DA
S2140016800B4B1B68002B03D106237B6000E0C04693
S2140016907B681800BD4602B080BDC0461914000025
S2140016A0DD150000AD600000DC380020455E00005F
S2140016B00839002090B589B000AF78600023FB6140
S2140016C00023BB6100237B6100233B617B68002B0A
S2140016D003D07B685B68002B03D108235B42FB6169
S2140016E01FE07B681B789AB2104B1A807B685A689A
S2140016F00E4B5A607B68DA890C4B5A800F23FC1815
S2140017000A4A0B4B110018000A4B98470300237037
S2140017100F23FB181B78002B03D006235B42FB61CC
S214001720C046FB691800BD4609B090BD0C390020C4
S214001730E03800206D08000090B589B000AF7860F2
S2140017400023FB610023BB6100237B6100233B6118
S2140017507B68002B03D07B685B68002B03D10823D3
S2140017605B42FB611FE07B681B789AB2104B1A80C5
S2140017707B689A680E4B5A607B689A890C4B5A8035
S2140017800F23FC180A4A0B4B110018000A4B984707
S214001790030023700F23FB181B78002B03D00623AF
S2140017A05B42FB61C046FB691800BD4609B090BDB0
S2140017B00C390020E03800208907000090B583B07F
S2140017C000AF00237B60094B18680023002200212D
S2140017D0074CA0470300012B02D014235B427B601A
S2140017E07B681800BD4603B090BDC046DC380020BC
S2140017F0ED60000080B584B000AF78600023FB6029
S214001800084B1B687A6811001800074B98470300BE
S214001810012B02D01D235B42FB60FB681800BD460F
S21400182004B080BDDC380020FD6D000080B584B0BB
S21400183000AF78600023FB60044B1A687B681A6070
S214001840FB681800BD4604B080BDC04608390020BD
S21400185080B500AF024B1B781800BD4680BDC04661
S2140018601D03002080B582B000AF0200FB1D1A7079
S214001870034BFA1D12781A70C046BD4602B080BDF2
S2140018801D03002080B584B000AF78603960002367
S214001890FB600023BB603B681800274B984703009B
S2140018A0FB60FB68002B38D10023FB600823FB1885
S2140018B01800224B9847FB68002B30D17B68180035
S2140018C01F4B98470300FB60FB68002B2AD1BB68C0
S2140018D03A68110018001B4B98470300012B11D1E2
S2140018E0194B9847031E11D00020184B9847FB68E9
S2140018F0002B03D021235B42FB6014E003235B42F2
S214001900FB6010E003235B42FB600CE0104B984743
S2140019100200FB681343FB6002E0C04600E0C046DE
S214001920FB6805E0C0460A4B98470300FB60FB686F
S2140019301800BD4604B080BDF51700002D18000045
S214001940B5160000FD6D0000511800006518000077
S214001950BD17000090B589B000AF78600023FB612A
S2140019600023BB6100237B6100233B617B68002B67
S21400197003D07B685B68002B03D108235B42FB61C6
S2140019801FE07B681B789AB2104B1A807B685A68F7
S2140019900E4B5A607B68DA890C4B5A800F23FC1872
S2140019A00A4A0B4B110018000A4B98470300237095
S2140019B00F23FB181B78002B03D006235B42FB612A
S2140019C0C046FB691800BD4609B090BD0C39002022
S2140019D0E0380020AD08000080B586B000AFF860A3
S2140019E0B9607A6000237B6100233B6196235B002D
S2140019F01800394B984703007B617B69002B5BD14D
S214001A001023FB181800354B984703007B617B6951
S214001A10002B53D1324B00229A72FB681800314BD0
S214001A20984703007B617B69002B4AD13B697A6843
S214001A30110018002C4B98470300012B1BD12B4B91
S214001A409847031E06D00020294B984703235B4285
S214001A507B6137E0BB681800264B9847204B012275
S214001A609A72FB681800244B984703007B617B69D9
S214001A70002B04D026E003235B427B6122E03B6917
S214001A807A6811001800184B98470300012B0AD1FA
S214001A90164B9847031E0AD00020154B9847032381
S214001AA05B427B610EE003235B427B610AE0134BE3
S214001AB0984703007B6102E0C04600E0C0467B69B1
S214001AC005E0C0460D4B984703007B617B69180014
S214001AD0BD4606B080BDC046F51700002D180000B4
S214001AE0E038002055190000FD6D00005118000078
S214001AF065180000457B000039170000BD17000080
S214001B00B0B586B000AFF86008007A6019000B2305
S214001B10FB18021C1A700823FB180A1C1A80FB68A4
S214001B205C68FB6898680823FB181D887A680B2396
S214001B30FB1819782B00A04703007B617B6918000F
S214001B40BD4606B0B0BDB0B586B000AFF8600800C0
S214001B507A6019000B23FB18021C1A700823FB1866
S214001B600A1C1A80FB681C68FB6898680823FB1828
S214001B701D887A680B23FB1819782B00A0470300F2
S214001B807B617B691800BD4606B0B0BD80B582B0EB
S214001B9000AF0200BB1D1A80BB1D00229A5E064BDA
S214001BA010009847021C054B0549101C9847031C5B
S214001BB0181CBD4602B080BD01CB000081C80000E5
S214001BC023DB793D90B585B000AF78600A00FB1C3A
S214001BD01A700823FA18786801231021124CA047BF
S214001BE00300FB60FB68002B19D1FB1C1B7803224B
S214001BF01340DAB20823FB1803210A4090001A7833
S214001C000C218A43111C021C0A431A700823FA1876
S214001C10786801231021054CA0470300FB60FB6891
S214001C201800BD4605B090BD011B0000471B000014
S214001C3090B587B000AF78600A00FB1C1A701723B7
S214001C40FB18FA1C12781A700C23FA187B6811001D
S214001C501800A44B984703003B613B69002B00D05B
S214001C6013E10C23FB181B78DB07DB0FDAB20C231F
S214001C70FB181B789B07DB0FDBB21343DAB20C238F
S214001C80FB181B785B07DB0FDBB21343DAB20C23BF
S214001C90FB181B781B07DB0FDBB21343DAB20C23EF
S214001CA0FB181B78DB06DB0FDBB21343DAB20C2320
S214001CB0FB181B789B06DB0FDBB21343DAB20C2350
S214001CC0FB181B785B06DB0FDBB21343DAB20C2380
S214001CD0FB181B781B06DB0FDBB21343DAB20C23B0
S214001CE0FB185B78DB07DB0FDBB21343DAB20C239F
S214001CF0FB185B789B07DB0FDBB21343DAB20C23CF
S214001D00FB185B785B07DB0FDBB21343DAB20C23FE
S214001D10FB185B781B07DB0FDBB21343DAB20C232E
S214001D20FB185B78DB06DB0FDBB21343DAB20C235F
S214001D30FB185B789B06DB0FDBB21343DAB20C238F
S214001D40FB185B785B06DB0FDBB21343DAB20C23BF
S214001D50FB185B781B06DB0FDBB21343DBB2012BF1
S214001D6000D092E00B23FA187B68110018005E4B37
S214001D70984703003B613B69002B00D085E00B23AE
S214001D80FB181B78012B17D002DC002B05D076E061
S214001D90022B29D0032B48D071E0FB1C1B78002BAC
S214001DA004D11723FB1801221A706EE01723FB18C4
S214001DB0FA1C12781A7068E0FB1C1B78002B04D102
S214001DC01723FB1802221A705FE0FB1C1B78012BFE
S214001DD004D11723FB1802221A7056E01723FB18AB
S214001DE0FA1C12781A7050E0FB1C1B78002B04D1EA
S214001DF01723FB1803221A7047E0FB1C1B78012BE5
S214001E0004D11723FB1803221A703EE0FB1C1B7834
S214001E10022B04D11723FB1803221A7035E0172370
S214001E20FB18FA1C12781A702FE0FB1C1B78002B8C
S214001E3004D11723FB1804221A7026E0FB1C1B781B
S214001E40012B04D11723FB1804221A701DE0FB1C7B
S214001E501B78022B04D11723FB1804221A7014E0F7
S214001E60FB1C1B78032B04D11723FB1804221A70C3
S214001E700BE01723FB18FA1C12781A7005E01723DC
S214001E80FB18FA1C12781A70C0463B69002B08D162
S214001E900823FA18786801231021144CA047030081
S214001EA03B613B69002B18D11723FB181B780F22C8
S214001EB01340DAB20823FB1810011A780F210A40E3
S214001EC0111C021C0A431A700823FA1878680123AA
S214001ED01021074CA04703003B613B691800BD4634
S214001EE007B090BD0D27000061270000011B000011
S214001EF0471B000090B585B000AF78600A00FB1C59
S214001F001A700823FA18786801231121124CA0478A
S214001F100300FB60FB68002B19D1FB1C1B78072213
S214001F201340DAB20823FB1807210A4090181A78E3
S214001F300E218A43111C021C0A431A700823FA1841
S214001F40786801231121054CA0470300FB60FB685D
S214001F501800BD4605B090BD011B0000471B0000E1
S214001F6090B587B000AF78600A00FB1C1A70172384
S214001F70FB18FA1C12781A700C23FA187B681100EA
S214001F801800A44B984703003B613B69002B00D028
S214001F9013E10C23FB181B78DB07DB0FDAB20C23EC
S214001FA0FB181B789B07DB0FDBB21343DAB20C235C
S214001FB0FB181B785B07DB0FDBB21343DAB20C238C
S214001FC0FB181B781B07DB0FDBB21343DAB20C23BC
S214001FD0FB181B78DB06DB0FDBB21343DAB20C23ED
S214001FE0FB181B789B06DB0FDBB21343DAB20C231D
S214001FF0FB181B785B06DB0FDBB21343DAB20C234D
S214002000FB181B781B06DB0FDBB21343DAB20C237C
S214002010FB185B78DB07DB0FDBB21343DAB20C236B
S214002020FB185B789B07DB0FDBB21343DAB20C239B
S214002030FB185B785B07DB0FDBB21343DAB20C23CB
S214002040FB185B781B07DB0FDBB21343DAB20C23FB
S214002050FB185B78DB06DB0FDBB21343DAB20C232C
S214002060FB185B789B06DB0FDBB21343DAB20C235C
S214002070FB185B785B06DB0FDBB21343DAB20C238C
S214002080FB185B781B06DB0FDBB21343DBB2012BBE
S21400209000D092E00B23FA187B68110018005E4B04
S2140020A0984703003B613B69002B00D085E00B237B
S2140020B0FB181B78012B17D002DC002B05D076E02E
S2140020C0022B29D0032B48D071E0FB1C1B78002B79
S2140020D004D11723FB1801221A706EE01723FB1891
S2140020E0FA1C12781A7068E0FB1C1B78002B04D1CF
S2140020F01723FB1802221A705FE0FB1C1B78012BCB
S21400210004D11723FB1802221A7056E01723FB1877
S214002110FA1C12781A7050E0FB1C1B78002B04D1B6
S2140021201723FB1803221A7047E0FB1C1B78012BB1
S21400213004D11723FB1803221A703EE0FB1C1B7801
S214002140022B04D11723FB1803221A7035E017233D
S214002150FB18FA1C12781A702FE0FB1C1B78002B59
S21400216004D11723FB1804221A7026E0FB1C1B78E8
S214002170012B04D11723FB1804221A701DE0FB1C48
S2140021801B78022B04D11723FB1804221A7014E0C4
S214002190FB1C1B78032B04D11723FB1804221A7090
S2140021A00BE01723FB18FA1C12781A7005E01723A9
S2140021B0FB18FA1C12781A70C0463B69002B08D12F
S2140021C00823FA18786801231121144CA04703004D
S2140021D03B613B69002B18D11723FB181B780F2295
S2140021E01340DAB20823FB1810011A780F210A40B0
S2140021F0111C021C0A431A700823FA187868012377
S2140022001121074CA04703003B613B691800BD46FF
S21400221007B090BD0D27000061270000011B0000DD
S214002220471B000090B585B000AF78600A00FB1C25
S2140022301A700823FA18786801231221124CA04756
S2140022400300FB60FB68002B19D1FB1C1B780122E6
S2140022501340DAB20823FB1801210A4090011A78CD
S21400226040218A43111C021C0A431A700823FA18DC
S214002270786801231221054CA0470300FB60FB6829
S2140022801800BD4605B090BD011B0000471B0000AE
S21400229090B585B000AF78600A00FB1C1A70082362
S2140022A0FA18786801231521124CA0470300FB603A
S2140022B0FB68002B19D1FB1C1B7801221340DAB2F5
S2140022C00823FB1801210A40D0001A7808218A4307
S2140022D0111C021C0A431A700823FA187868012396
S2140022E01521054CA0470300FB60FB681800BD469F
S2140022F005B090BD011B0000471B000090B585B0DF
S21400230000AF786039600823FA18786801231E2128
S214002310084CA0470300FB600823FB181B78DB076C
S214002320DB0FDBB21A003B681A70FB681800BD466C
S21400233005B090BD011B000090B587B000AF786077
S21400234039600C23FA18786806232821264CA04703
S21400235003007B610C23FB185B781AB23B681A807B
S2140023603B6800229B5E9BB21B029AB20C23FB18B2
S2140023701B789BB2D3189BB21AB23B681A803B6894
S21400238002330C22BA18D27812B21A803B68023393
S2140023903A6802320021525E92B2120291B20C22C8
S2140023A0BA18927892B28A1892B212B21A803B6821
S2140023B004330C22BA18527912B21A803B680433DE
S2140023C03A6804320021525E92B2120291B20C2296
S2140023D0BA18127992B28A1892B212B21A807B692F
S2140023E01800BD4607B090BD011B000090B585B033
S2140023F000AF78600A00FB1C1A700823FA18786889
S21400240001230121114CA0470300FB60FB68002B51
S21400241017D1FB1C1B7803221340DAB20823FB18E3
S21400242090011A783F210A40111C021C0A431A70B8
S2140024300823FA18786801230121054CA0470300F9
S214002440FB60FB681800BD4605B090BD011B000090
S214002450471B000090B585B000AF786039603A68D9
S214002460786801230F21044CA0470300FB60FB683B
S2140024701800BD4605B090BD011B000090B585B0A4
S21400248000AF78600A00FB1C1A700823FA187868F8
S21400249001231221124CA0470300FB60FB68002BAF
S2140024A019D1FB1C1B7801221340DAB20823FB1853
S2140024B001210A4010001A7801218A43111C021CCF
S2140024C00A431A700823FA18786801231221054C6B
S2140024D0A0470300FB60FB681800BD4605B090BD32
S2140024E0011B0000471B000090B585B000AF786068
S2140024F039600823FA18786801231221084CA0478F
S2140025000300FB600823FB181B78DB07DB0FDBB23E
S2140025101A003B681A70FB681800BD4605B090BDEF
S214002520011B000090B585B000AF78600A00FB1C68
S2140025301A700823FA18786801231021124CA04755
S2140025400300FB60FB68002B19D1FB1C1B780122E3
S2140025501340DAB20823FB1801210A4090181A78B3
S21400256002218A43111C021C0A431A700823FA1817
S214002570786801231021054CA0470300FB60FB6828
S2140025801800BD4605B090BD011B0000471B0000AB
S21400259090B585B000AF78600A00FB1C1A7008235F
S2140025A0FA18786801231721254CA0470300FB6022
S2140025B0FB68002B3FD1FB1C1B781B09DBB21A1CE7
S2140025C001231340DAB20823FB1801210A409000C9
S2140025D01A7804218A43111C021C0A431A70FB1C39
S2140025E01B785B09DBB21A1C01231340DAB20823FE
S2140025F0FB1801210A4010011A7810218A43111C89
S214002600021C0A431A70FB1C1B7807221340DAB21E
S2140026100823FB1850011A781F210A40111C021CBF
S2140026200A431A700823FA18786801231721054C04
S214002630A0470300FB60FB681800BD4605B090BDD0
S214002640011B0000471B000090B587B000AF786004
S2140026500A00FB1C1A700C23FA187868012318214C
S214002660284CA04703007B617B69002B1CD1FB1C18
S2140026701B78DB09DBB21A1C01231340DAB20C23E9
S214002680FB1801210A4090181A7802218A43111C6F
S214002690021C0A431A700C23FA18786801231821C2
S2140026A0194CA04703007B617B69002B08D11023DF
S2140026B0FA18786801236221124CA04703007B6158
S2140026C07B69002B19D1FB1C1B7803221340DAB25E
S2140026D01023FB1803210A40D0001A7818218A43D9
S2140026E0111C021C0A431A701023FA18786801237A
S2140026F06221054CA04703007B617B691800BD463C
S21400270007B090BD011B0000471B000090B585B0C8
S21400271000AF786039607B68022118000E4B98473E
S2140027200300FB60FB68002B07D13A687868022339
S21400273046210A4CA0470300FB60FB68002B06D12D
S2140027407B6800211800044B98470300FB60FB6879
S2140027501800BD4605B090BDED230000011B00002B
S21400276090B585B000AF786039607B6802211800AC
S214002770214B98470300FB60FB68002B08D1082319
S214002780FA18786801235F211C4CA0470300FB6001
S214002790FB68002B2BD10823FB181B78DB069B0F4E
S2140027A0DBB2012B0CD002DC002B05D014E0022B90
S2140027B00AD0032B0CD00FE03B6800221A700FE003
S2140027C03B6801221A700BE03B6802221A7007E091
S2140027D03B6803221A7003E03B6800221A70C0466A
S2140027E07B6800211800044B98470300FB60FB68D9
S2140027F01800BD4605B090BDED230000011B00008B
S21400280080B586B000AFF86008007A6019000B2328
S214002810FB18021C1A700823FB180A1C1A801C4B93
S2140028200B22BA1812781A7000237B610AE07B69C3
S21400283001337A6979688A181178154AD1547B6908
S21400284001337B610823FB181A887B699A42EEDC09
S2140028500823FB181A8879680E4B18000E4B984709
S2140028600E4B6B221A700D4B094A5A600823FB1850
S2140028701B8801339AB2094BDA81084B6421180091
S214002880074B984703001800BD4606B080BDC046FB
S214002890183900201939002075E500005839002045
S2140028A08518000080B584B000AFF86008007A6034
S2140028B019000B23FB18021C1A700823FB180A1CAD
S2140028C01A80104B0B22BA1812781A700E4B6B2215
S2140028D01A700D4B0B4A5A600B4B0122DA810A4BD9
S2140028E07A689A60084B0822BA1812889A81064BB2
S2140028F0642205211800054B984703001800BD46C2
S21400290004B080BD1839002058390020D9190000BD
S21400291080B500AF014B1800BD4680BD000000200A
S21400292080B582B000AF00237B60234B01211800E6
S214002930224B984703007B60FA1C1F4B11001800BF
S2140029401F4B984702007B6813437B60FB1C1B7879
S214002950002BF1D1184B802118001A4B9847164BC4
S21400296001211800184B9847134B00211800174BED
S2140029709847114B01211800154B98470E4B012123
S2140029801800144B98470C4B00211800124B984720
S214002990094B06211800114B9847074B04211800D5
S2140029A00F4B9847044B012118000E4B98477B6845
S2140029B01800BD4602B080BD000000207D24000047
S2140029C0E92400004926000025220000912200008C
S2140029D0311C0000611F0000C51B0000F51E000032
S2140029E0912500002525000080B582B000AF394B48
S2140029F02E221A70374B384A5A60364B0222DA813A
S214002A00344B3A009A60334B01229A81314B642250
S214002A1000211800314B984703007B607B68002B31
S214002A2004D02F4B18002F4B98470DE03B001B7827
S214002A30552B05D02C4B18002A4B9847012344E011
S214002A402A4B1800274B9847224B294A5A60214B9D
S214002A500322DA811F4B64211800264B9847030097
S214002A607B607B68002B03D0234B18001D4B9847D8
S214002A70184B224A5A60174B0322DA81154B642101
S214002A8018001C4B984703007B607B68002B03D024
S214002A901B4B1800134B98470E4B1A4A5A600D4BA7
S214002AA00422DA810B4B64211800124B984703006E
S214002AB07B607B68002B03D0134B1800094B9847AC
S214002AC0124B9847124B98477B681800BD4602B0D9
S214002AD080BDC0466839002074F40000D919000093
S214002AE08CF40000E9960000ACF40000B8F4000096
S214002AF078F4000085180000CCF400007CF4000098
S214002B00ECF4000080F4000018F50000C12E000070
S214002B10D12D000080B582B000AFFB1C00221A70D9
S214002B20114B2E221A70104B104A5A600E4B02227E
S214002B30DA810D4BFA1C9A600B4B01229A810A4BE4
S214002B406422002118000A4B984703007B607B68CC
S214002B50002B03D0074B1800074B9847FB1C1B782D
S214002B601800BD4602B080BD6839002088F4000019
S214002B70D91900004CF50000E996000080B584B035
S214002B8000AF78600A00FB1C1A700823FB18144A72
S214002B9012881A80134B2E221A70124B0822BA186B
S214002BA05A60104B0222DA810E4B7A689A60FB1C40
S214002BB01B789AB20B4B9A810A4B642200211800AC
S214002BC0094B98470300FB60FB68002B03D0074BBC
S214002BD01800074B9847FB681800BD4604B080BD38
S214002BE070F5000068390020D91900004CF5000087
S214002BF0E996000090B587B000AF04000800110009
S214002C00FB1D221C1A70BB1D021C1A707B1D0A1CA1
S214002C101A701023FB187A1D127801211000084044
S214002C201A7801218A43111C021C0A431A70BB1D24
S214002C301B7801229A401300DBB21A1C0F231340A4
S214002C40DAB21023FB180F210A4090181A781E21BA
S214002C508A43111C021C0A431A700C23FB1810220C
S214002C601A700C23FB1801225A700C23FB18FA1D4D
S214002C7012789A701023FB181A780C23FB18DA7057
S214002C800C4B2E221A700B4B0C22BA185A60094BAA
S214002C900422DA81074B00229A81064B6421180031
S214002CA0054B984703007B617B691800BD4607B05B
S214002CB090BDC0466839002085180000B0B588B0C1
S214002CC000AF05000C0010001900FB1D2A1C1A702E
S214002CD0BB1D221C1A707B1D021C1A703B1D0A1C91
S214002CE01A701023FB180E221A701023FB180422E9
S214002CF05A701023FB1800229A701023FB1800222B
S214002D00DA701023FB187A1D12781A711023FB183C
S214002D10BA1D12785A711023FB183A1D12789A7150
S214002D200C23FB18174A12881A80FB1D1B789BB2CF
S214002D301E22BA18191C0B1CDB185B1813801E23E6
S214002D40FB181B881B0A9BB2DAB21023FB189A707A
S214002D501E23FB181B88DAB21023FB18DA700A4B06
S214002D601022BA185A60084B0722DA81064B6421F3
S214002D701800064B98470300BB61BB691800BD46A8
S214002D8008B0B0BD74F50000683900208518000052
S214002D9080B582B000AF3B000A4A12881A800A4B00
S214002DA03A005A60084B0222DA81074B6421180069
S214002DB0064B984703007B607B681800BD4602B050
S214002DC080BDC04674F500006839002085180000F4
S214002DD080B582B000AF334B2E221A70314B324A88
S214002DE05A60304B0322DA812E4B00229A812D4BFB
S214002DF0642118002D4B984703003B603B68002B6E
S214002E0003D02B4B18002B4B984700237B6041E0E8
S214002E107B68002B00DA03339B10DBB2DB00DAB2F0
S214002E207B6825490B4004D5013B042149420B43EE
S214002E300133DBB2D318DBB20122032118001F4B8B
S214002E40984703003B607B68002B00DA03339B1037
S214002E50DBB2DB00DAB27B6817490B4004D5013BD6
S214002E60042149420B430133DBB2D318DBB2012203
S214002E7002211800114B984702003B6813433B6041
S214002E803B68002B03D00A4B18000A4B98477B6818
S214002E9001337B607B680F2BBADDC046BD4602B0AF
S214002EA080BDC0466839002084F400008518000004
S214002EB078F50000E996000003000080F52B00007E
S214002EC0B0B500AFFF23FF22FF210F20094CA0471B
S214002ED0094B9847C8235B001800084B9847002307
S214002EE0002200210F20034CA047034B9847C04602
S214002EF0BD46B0BDBD2C0000912D0000457B0000F6
S214002F0090B59FB000AF78600823FB1818006423C4
S214002F101A0000213B4B98473B4B18003B4B984709
S214002F203B4B00221A703A4B1B78012B61D0022BC8
S214002F3061D0002B59D16F23FC18364B98470300FD
S214002F4023706F23FB181B78002B56D06F23FB18BB
S214002F501A780823FB18110018002F4B98470023F7
S214002F607B6709E07B6FD8B20023002200212B4C40
S214002F70A0477B6F01337B677B6F0F2BF2DD284BFF
S214002F8098470823FB181B781A0003231340032BCB
S214002F9033D100233B6721E00823FB181B789B08EE
S214002FA0DBB2DB08DBB29B00D9B20823FB181B7828
S214002FB09B08DBB207221340DAB26E23FB188A188E
S214002FC01A706E23FB181878642364226421134C4D
S214002FD0A047134B98473B6F01333B676F23FB18A3
S214002FE01A783B6F9A42D7DC07E0094B00221A702A
S214002FF004E0C04602E0C04600E0C0463220094B6E
S214003000984790E787E500009CF50000E9960000E9
S21400301078390020152B00007D2B0000BD2C000009
S214003020912D0000457B000080B582B000AF78602F
S2140030307B6800221A70C046BD4602B080BD000004
S21400304080B582B000AF02003960FB1D1A70FB1D10
S2140030501B78012B0AD0022B0FD0002B14D10E4B5D
S2140030600D4A91693A680A439A610FE00A4B0A4A88
S214003070D1693A680A43DA6108E0074B064A116AE2
S2140030803A680A431A6201E0172300E0002318009A
S214003090BD4602B080BDC0460004004080B582B088
S2140030A000AF78607B6880221A707B6800225A70B6
S2140030B07B6801229A707B680022DA70C046BD46A3
S2140030C002B080BD80B500AF054B9B78DBB21A001E
S2140030D0022313405A1E9341DBB21800BD4680BD42
S2140030E00020004180B500AF024B9847C046BD4661
S2140030F080BDC0467D99000080B500AF024B984762
S214003100C046BD4680BDC046D199000080B582B09D
S21400311000AF0200FB1D1A70074AFB1D1B78190042
S2140031201F230B40012199400B0019008023D1502A
S214003130C046BD4602B080BD00E100E080B584B068
S21400314000AF78607B681B68FB60FB68DB69072262
S21400315013405A1E9341DBB21800BD4604B080BD32
S21400316080B582B000AF7860C0467B681800044B1C
S2140031709847031EF9D1C046BD4602B080BDC04682
S2140031803D31000080B584B000AF78607B681B6876
S214003190FB607B681B6818000D4B984703001800FF
S2140031A00C4B98477B6818000B4B9847FB688322AC
S2140031B01A75FB6883221A76FB681B680222934303
S2140031C01A00FB681A60C046BD4604B080BDC04603
S2140031D059A600000D31000061310000F0B597B02F
S2140031E000AF786139610023FB6300233B65002351
S2140031F0FB643B2310229446BC44634400221A70AE
S2140032007B691B68BB637B691B687B632323102277
S214003210BA18D4187B6B1800C04B9847030023706D
S2140032200C2310229446BC4463441800BC4B9847B9
S2140032303B69DB697B643B691B6A3B647B6C002BE8
S21400324006D17B6B00211800B64B984703007B64C1
S2140032507B6CDAB20C2310218C46BC4463441A7093
S2140032600C2310229446BC44634402225A707B6CA2
S2140032701B0CDBB20C2210218C46BC4462441100AD
S2140032801800A94B98473B6C002B06D17B6B01219D
S2140032901800A44B984703003B643B6CDAB20C233F
S2140032A010218C46BC4463441A700C2310229446AA
S2140032B0BC44634402225A703B6C1B0CDBB20C22EB
S2140032C010218C46BC44624411001800964B984767
S2140032D03B699A8A7B69DA803B69DA8A7B691A815C
S2140032E03B691B7E002B03D1904B9847031E02D0F0
S2140032F080237B6501E000237B653B691B69002B0F
S21400330004D03B691B697A6D13437B653B699B68F8
S2140033107A6D13437B653B6924229B5C002B04D0AB
S2140033207B6D8022D20513437B653B699B6A002B2D
S21400333004D03B699B6A7A6D13437B653B692C22FC
S2140033409B5C002B05D13B699A6880239B049A42BC
S21400335004D17B6D8022120513437B653B692D22C9
S2140033609B5C002B04D07B6D8022120413437B658C
S2140033703B692E229B5C002B04D07B6D8022D203FF
S21400338013437B65BB6B1A687B6D1A43BB6B1A6075
S214003390BB6B802252005A60232310229446BC4402
S2140033A063441B781433DBB21800614B9847030064
S2140033B0FB623B691B68FA2292005343BB623B697F
S2140033C05B68FA22920053437B623B691B8E3B622A
S2140033D0584BF86A984705000E00564BB86A98474F
S2140033E0B860F960534BF86A9847534C534A544BAD
S2140033F0A04703000C003B607C604E4B386A984741
S21400340002000B004C4C38687968A04703000C009B
S214003410180021004B4C00224B4BA04703000C0029
S2140034201A002300444CB868F968A04703000C0053
S2140034301A002300454C28003100A04703000C006A
S2140034401D002600BB6A5A003A4B1000984702003F
S2140034500B003C4C28003100A04703000C0018006D
S21400346021003A4C00223A4BA04703000C001D00F6
S2140034702600BB6A5A002F4B1000984702000B002C
S214003480344C28003100A04703000C00190022002D
S214003490314B0800110098470300FB633B699A68AC
S2140034A080239B049A426AD1224BF86A9847254C9F
S2140034B002000B00A04703000C001D0026001D4B59
S2140034C0786A98471C4C0022244BA04703000C0047
S2140034D01A0023001F4C28003100A04703000C00F0
S2140034E018002100194C0022194BA04703000C00BD
S2140034F019002200184B0800110098470300FB64CF
S214003500FB6C002B2ED0164B796AF86A984703009E
S2140035109A1EFB6CD31A3B6531E0C04689A50000B5
S2140035209D300000CDA30000C5C10000C5300000DE
S21400353089BF0000BDE3000029D8000095D626E824
S2140035400B2E113EA1CB00000000244029DD000018
S2140035500000F03FC1D1000055E300000000084025
S21400356015C700007B6A5A00FB6AD3185A1E7B6A8E
S21400357059001D4B100098470300013B3B65FB6B51
S214003580FF2B08DCFB6B002B05DB3B6DFF2B02DC07
S2140035903B6D002B06DA3B2310229446BC44634462
S2140035A040221A703B2310229446BC4463441B7886
S2140035B0402B0ED0FB6BFF221A403B6D1B041900FC
S2140035C0FF231B040B401343FA6C12061A43BB6B13
S2140035D0DA603B2310229446BC4463441B781800F0
S2140035E0BD4617B0F0BDC04615C7000090B58BB0FD
S2140035F000AFF860B9607A60FB68BA681A60FB686A
S2140036001B687B62FB681B6818003B4B98470300EF
S2140036103B623B6A0233FB613B6A1433BB610122A7
S214003620FB699A40130019000220344B9847142374
S214003630FB181800324B98477B681A7B1423FB183C
S2140036401A70BB69DBB21422BA18110018002D4B91
S2140036509847BB69DBB218002B4B98477B681B7BEF
S21400366000211800294B98477B6A1B6802221340EA
S21400367001D01C233BE07B6A1B680122134001D06B
S214003680052334E0FB681B681722BC1818001A4B89
S2140036909847030023701E4A1723FB181B78110057
S2140036A018001C4B98471723FB181A781A4B9200E1
S2140036B0F968D150FB6800221A76FB6800225A7619
S2140036C0FB6800225A83FB6800229A83FB68252247
S2140036D000219954FB6800221A627B6A14221A6041
S2140036E07A68FB68110018000C4B98470300180016
S2140036F0BD460BB090BDC04689A500004130000015
S2140037002930000065BE0000A9BE000041A30000ED
S214003710ED080000EDA50000504E0020DD31000051
S21400372080B584B000AF78607B681B68FB607B6800
S21400373018000F4B98477B6818000E4B98470E4BA7
S21400374098477B681B6818000C4B984703001800C6
S2140037500B4B98470B4B98477B681800044B9847D1
S214003760FB6801221A60C046BD4604B080BDC04654
S2140037706131000085310000E530000059A60000E8
S214003780E1BF0000F930000080B584B000AF78607B
S2140037907B681B68FB60FB681B7EDBB21A0002239B
S2140037A013400BD0FB6802221A76FB685B8B9BB239
S2140037B01A000223134011D0412310E0FB685B8BF4
S2140037C09BB21A000423134008D0FB685B68C02233
S2140037D092021A43FB685A60182300E00023180080
S2140037E0BD4604B080BD80B584B000AF78607B680D
S2140037F01B68BB600E23FB1800221A800FE00E2306
S214003800FB180E22BA18128801321A807B681B89B0
S2140038100E22BA1812889A4201D312230EE0BB6811
S2140038201B7EDBB21A000123134006D1BB681B7E49
S214003830DBB21A0002231340E1D000231800BD4675
S21400384004B080BD90B585B000AF78600A00FB1C60
S2140038501A707B681B68FB60FB685B688022D2027C
S2140038601A43FB685A60FB1C1A78FB685A620B23E3
S214003870FC187B681800074B984703002370FB680A
S21400388001221A760B23FB181B781800BD4605B0DC
S21400389090BDC046E737000080B500AF0020024B61
S2140038A09847C046BD4680BDD538000080B500AFFD
S2140038B00120024B9847C046BD4680BDD538000063
S2140038C080B500AF0220024B9847C046BD4680BD7B
S2140038D0D538000080B584B000AF0200FB1D1A701A
S2140038E0FB1D1A78284B9200D358FB60FB681B68B8
S2140038F09B7BDBB2FA68127E1340DAB2FB68597E15
S2140039000B23FB180A401A700B23FB181B780122A6
S214003910134008D0FB689B68FA6810009847FB685D
S2140039201B6801229A730B23FB181B780222134094
S21400393008D0FB68DB68FA6810009847FB681B68CD
S21400394002229A730B23FB181B781022134008D010
S214003950FB681B69FA6810009847FB681B68102212
S2140039609A730B23FB181B782022134008D0FB68A1
S2140039705B69FA6810009847FB681B6820229A73F8
S214003980C046BD4604B080BD7C39002080B584B0FA
S21400399000AF78600023FB607B68002B01D172B615
S2140039A0FEE70820114B98470300BB60BB68002B5E
S2140039B001D172B6FEE7BB68002B12D00C4B9847BD
S2140039C0BB687A681A60BB6800225A60094B1B689D
S2140039D0BA685A60074BBA681A60074B98470123C3
S2140039E0FB60FB681800BD4604B080BD915C00001B
S2140039F0595B0000140000207D5B000080B588B095
S214003A0000AFF860B9607A600123FB613D4B1B682C
S214003A10002B44D13B4B3C4A1A603AE0394B1B68BA
S214003A201B681B68BB61BB691800384B98470300CE
S214003A307B61FA687B69D3181B78202B05D0FA685F
S214003A407B69D3181B78002B1ED17A69B969FB688D
S214003A5018002F4B9847031E16D12A4B1B681B686D
S214003A601B7B5BB2002B19DBFB681800294B9847C1
S214003A7003001A00234B1B681B681B7B5BB29A4231
S214003A800CD00023FB6109E01E4B1B685A681D4BD7
S214003A901A601C4B1B68002BC0D100E0C046194BB7
S214003AA01B68002B0CD0FB69002B09D17A681A49D9
S214003AB0BB681800194B9847124B00221A601CE08E
S214003AC0104B1B68002B10D00E4B1B681B689B68A6
S214003AD0FA687968B86898470300FB61FB69002BB1
S214003AE00BD1084B00221A6007E07A680C49BB68C5
S214003AF018000A4B98470023FB61FB691800BD4677
S214003B0008B080BD340300200C000020F1E7000060
S214003B10FFE70000353C0000E8F5000021E8000063
S214003B2040F6000080B586B000AFF860B9607A60F5
S214003B3000237B6100233B617B6800221A603BE028
S214003B40FB680133FB60FB681B78002B07D0FB6823
S214003B501B78202BF4D102E0FB680133FB60FB6886
S214003B601B78002B03D0FB681B78202BF4D0FB6857
S214003B701B78002B25D07B6901337B617A69BB6893
S214003B809A4219D1FB683B6107E07B681B685A1CA8
S214003B907B681A60FB680133FB60FB681B78002BB0
S214003BA003D0FB681B78202BEFD17B681B68002BAB
S214003BB009D100233B6106E07A69BB689A42C2D30A
S214003BC002E0C04600E0C0463B691800BD4606B0AD
S214003BD080BD000080B586B000AFF860B9607A603E
S214003BE0114B1B68002B02D10F4B104A1A600E4B6C
S214003BF01B681B685968BA68FB6818000C4B984726
S214003C00094B1B685A68084B1A60074B1B68002B49
S214003C1002D100237B6101E001237B617B691800F0
S214003C20BD4606B080BDC046380300200C0000200C
S214003C3021E8000080B584B000AF78600F23FB1841
S214003C4000221A700023BB6018E07B681B78202BCC
S214003C500FD1BB68012B0ED00F23FB181B785BB26D
S214003C60DBB20133DAB20F23FB181A700123BB60F4
S214003C7001E00023BB607B6801337B607B681B78B8
S214003C80002BE2D1BB68012B09D10F23FB181B7850
S214003C905BB2DBB2013BDAB20F23FB181A700F23BC
S214003CA0FB181B785BB21800BD4604B080BD000050
S214003CB080B582B000AF78607B681800034B9847E9
S214003CC003001800BD4602B080BDC046B5720000B5
S214003CD080B582B000AF78607B681800034B9847C9
S214003CE003001800BD4602B080BDC046E172000069
S214003CF080B582B000AF78607B681800034B9847A9
S214003D0003009BB21800BD4602B080BDC58500000A
S214003D1080B582B000AF78607B681800044B984787
S214003D2003001B0C9BB21800BD4602B080BDC04607
S214003D30C585000080B582B000AF78600A00BB1C65
S214003D401A807B681800084B984703001B0C1A045F
S214003D50BB1C1B881A437B6811001800034B98474E
S214003D60C046BD4602B080BDC5850000ED8500009A
S214003D7080B582B000AF78600A00BB1C1A807B68F2
S214003D801800094B984703001B041A0CBB1C1B8821
S214003D901B041A437B6811001800044B9847C04662
S214003DA0BD4602B080BDC046C5850000ED8500005A
S214003DB080B582B000AF78607B681800034B9847E8
S214003DC003009BB21800BD4602B080BDB13C0000A7
S214003DD080B582B000AF78607B681800044B9847C7
S214003DE003001B0C9BB21800BD4602B080BDC04647
S214003DF0B13C000080B582B000AF78600A00BB1C02
S214003E001A807B681800084B984703001B0C1A049E
S214003E10BB1C1B881A437B6811001800034B98478D
S214003E20C046BD4602B080BDB13C0000C97200006D
S214003E3080B582B000AF78600A00BB1C1A807B6831
S214003E401800094B984703001B041A0CBB1C1B8860
S214003E501B041A437B6811001800044B9847C046A1
S214003E60BD4602B080BDC046B13C0000C97200002D
S214003E7080B500AF024B984703001800BD4680BDD2
S214003E80A187000080B582B000AF78600D4B9847E0
S214003E907B68012B02D10C4B98470EE07B68022B07
S214003EA004D10A4B18000A4B984706E07B68002BA3
S214003EB003D0084B1800064B9847C046BD4602B0D4
S214003EC080BDC046554D0000CD420000A0F6000063
S214003ED001540000E0F6000080B500AF604B1B68A0
S214003EE00922DA655E4B1B6864220A2199545C4BF2
S214003EF01B6865220A219954594B1B6866220A21C1
S214003F009954574B1B6867220F219954544B1B68D2
S214003F10682205219954524B1B6869220521995441
S214003F204F4B1B686A22052199544D4B1B686B2228
S214003F30052199544A4B1B686C2205219954484B1D
S214003F401B6870220F219954454B1B6871220F2164
S214003F509954434B1B6872220F219954404B1B689F
S214003F6073220F2199543E4B1B6874220F219954DB
S214003F703B4B1B6875220F219954394B1B687622E0
S214003F800F219954364B1B6877220F219954344BD6
S214003F901B6878220F219954314B1B687C22102114
S214003FA099542F4B1B687D22102199542C4B1B686B
S214003FB07E22102199542A4B1B687F221321995484
S214003FC0274B1B68802211219954254B1B688122A0
S214003FD010219954224B1B68822213219954204B9E
S214003FE01B688322132199541D4B1B6884221321BE
S214003FF099541B4B1B68882200219952184B1B684A
S2140040008A22A0219952164B1B688C22A0214900B7
S2140040109952134B1B688E22F02149009952104B7F
S2140040201B6890220F4999520D4B1B6892220E492D
S21400403099520B4B1B6894220C499952084B1B68EB
S21400404096220B499952064B1B6898228C21C90070
S2140040509952034B1B68074A1A66C046BD4680BD88
S214004060F8030020FD02000052030000A203000037
S21400407001040000BF04000080B500AF2E4B0022F4
S2140040805A822D4B5A8A2C4B1A802B4B0A229A8224
S214004090294B9A8A284B5A80274B1422DA82264BC1
S2140040A0DA8A254B9A80244B1E221A83224B1A8BBF
S2140040B0214BDA80204B2D225A831F4B5A8B1E4BE6
S2140040C01A811D4B32229A831B4B9A8B1A4B5A81AC
S2140040D0194B3722DA83184BDA8B174B9A81164B1B
S2140040E03C221A84144B1A8C134BDA81124B412251
S2140040F05A84114B5A8C104B1A820F4B09229A8401
S2140041000D4B1322DA840C4B1D221A850A4B2C22E7
S2140041105A85094B31229A85074B3622DA85064B9B
S2140041203B221A86044B40225A86034B45229A8627
S214004130C046BD4680BDC0466803002080B582B03C
S21400414000AF0200FB1D1A70FB1D1B78082B16D84B
S2140041509A000D4BD3181B689F460C4B10E00C4B77
S2140041600EE00C4B0CE00C4B0AE00C4B08E00C4B42
S21400417006E00C4B04E00C4B02E00C4B00E00C4B52
S2140041801800BD4602B080BD14FA000014F7000007
S2140041905CF70000A4F70000F8F7000044F8000001
S2140041A090F80000DCF8000030F9000088F9000004
S2140041B0E4F9000090B587B000AF1723FB18002283
S2140041C01A70364B1B68002B0BD1344B1B68002B28
S2140041D005D1334B1800334B9847002359E0002392
S2140041E057E02E4B1B681B6B012B01D1012350E0BF
S2140041F02D4B1B68002B49D1EFF31083BB60BB68C7
S2140042003B610123FB60FB6883F31088274B1B6828
S2140042105A1C264B1A60214B1B6801221A63244B3A
S214004220984703001800234B984703001A001723EB
S214004230FB181A701723FB181B78002B16D11723B0
S214004240FC1803201C4B9847030023701B4A1723B7
S214004250FB181B7819000320194B98471723FB18E7
S2140042601B78002219000320164B98471723FB18CB
S2140042701B781800144B98470C4B1B685A1E0B4BA8
S2140042801A603B697B607B6883F31088034B1B686E
S2140042901B6B1800BD4607B090BDC046F803002053
S2140042A038FA000001540000580300205003002094
S2140042B0713E0000F13C0000E55000007CFA000072
S2140042C015530000754A00005D49000080B500AF38
S2140042D0024B9847C046BD4680BDC046B54100006B
S2140042E080B500AF084B1B68002B03D0064B1B683D
S2140042F000221A63054B1B68002B02D0034B1B6879
S2140043009847C046BD4680BDF803002060030020E5
S21400431090B589B000AF0200FB1D1A70FB1D1B781C
S214004320002B57D02E4B1B68002B55D0FB1D1B783F
S2140043300F2B04D92B4B18002B4B98474DE02B4BDB
S2140043401B68002B04D02A4B1800274B984744E0E4
S214004350EFF31083FB60FB68FB6101233B613B6965
S21400436083F31088214B1B685A1C204B1A60214B84
S2140043701B681B6B002B22D01A23FC181E4B180040
S2140043801E4B9847030023801923FB18FA1D12784A
S2140043901A701B4B984703007B617B69002B0ED07D
S2140043A07B6902221A707B691A22BA1812885A8010
S2140043B07B691922BA1812785A70124B98470B4B21
S2140043C01B685A1E094B1A60FB69BB60BB6883F307
S2140043D0108802E0C04600E0C046BD4609B090BD69
S2140043E020000020E4FD00000154000050030020DF
S2140043F024FE0000F8030020FFFF0000095600001E
S214004400B54F0000B155000080B58EB000AFF86023
S214004410B9607A60484B1B68002B00D188E07B6847
S214004420002B03DA7B685B427B6301E07B687B637F
S214004430EFF31083BB61BB693B630123FB61FB6940
S21400444083F310883D4B1B685A1C3C4B1A60BB68B4
S214004450002B05D03A4B1A687B68D218384B1A6086
S214004460354B1B681B6B002B57D0FF20354B9847EE
S21400447003001A002F23FB181A707B6B324A1900B0
S2140044801000324B984702002C23FB181A80304B42
S21400449098470300BB62BB6A002B3ED0BB6A2F2244
S2140044A0BA1812785A70BB6A00221A70BB6A2C229D
S2140044B0BA1812885A80274B9847BB68224A1900B8
S2140044C01000224B984702002623FB181A8025234B
S2140044D0FB1800221A701E4B984703003B623B6A8B
S2140044E0002B1AD03B6A2622BA1812885A803B6ADA
S2140044F02522BA1812785A70FB68DBB20133DAB29A
S2140045003B6A1A70FB68DAB2BB6A1A70114B98479E
S214004510094B1B680A4A12681A65084B1B685A1E24
S214004520064B1A603B6B7B617B6983F3108800E067
S214004530C046BD460EB080BDF803002050030020E4
S2140045406403002009560000FFFF0000D547000066
S214004550B54F0000B155000090B58BB000AFF860C5
S2140045607A600B23FB180A1C1A70FB68FE2B04D912
S214004570394B1800394B98476BE00B23FB181B7818
S214004580082B04D9364B1800344B984761E0354B5E
S2140045901A680B23FB181B786421D3185B181B784A
S2140045A01A007B689A4204D22F4B18002B4B984770
S2140045B04FE02E4B1B68002B04D02D4B1800274BCA
S2140045C0984746E02B4B1B78002B41D0EFF3108327
S2140045D07B617B697B620123BB61BB6983F31088C7
S2140045E0224B1B685A1C214B1A601E4B1B681B6B08
S2140045F0002B22D02223FC181F4B18001F4B984775
S214004600030023802123FB187A681A701C4B9847F6
S2140046100300FB61FB69002B0FD0FB692222BA184E
S21400462012885A80FB68DAB2FB691A70FB6921228D
S214004630BA1812785A70134B98470C4B1B685A1EC0
S2140046400A4B1A607B6A3B613B6983F3108800E083
S214004650C046BD460BB090BD94FE0000015400005D
S214004660CCFE0000F803002014FF000050030020DA
S2140046705CFF00005C030020FFFF000009560000FE
S214004680B54F0000B155000080B58AB000AFF860A5
S2140046907A603B600B23FB180A1C1A70FB68FE2B23
S2140046A004D9404B1800404B984777E00B23FB1883
S2140046B01B78082B04D93D4B18003B4B98476DE000
S2140046C03B4B1A680B23FB181B786421D3185B1826
S2140046D01B781A007B689A4204D2364B1800324B7D
S2140046E098475BE0344B1B68002B04D0334B180014
S2140046F02D4B984752E0EFF310837B617B697B621A
S2140047000123BB61BB6983F310882B4B1B685A1CC3
S214004710294B1A60264B1B681B6B002B34D0284B8A
S2140047201B78002B30D0FF20264B984703001A003A
S2140047302323FB181A703B681900FF20224B98476A
S21400474002002223FB181A702123FB187A681A70BD
S2140047501E4B98470300FB61FB69002B14D0FB69D6
S2140047602322BA181278DA70FB68DAB2FB691A707C
S214004770FB692122BA1812785A70FB692222BA18ED
S21400478012789A70124B98470B4B1B685A1E0A4BAE
S2140047901A607B6A3B613B6983F31088BD460AB0AA
S2140047A080BDC04694FF000001540000D4FF000006
S2140047B0F8030020240001005003002074000100CC
S2140047C05C03002009560000D5470000B54F0000E6
S2140047D0B155000080B584B000AF786039607B6862
S2140047E0FF2B09D07B68194A934205D0184B180056
S2140047F0184B98473B6824E03A687B689A4201D891
S2140048003B681EE0144B98470300FB60FB68002BD8
S21400481014D0FB6801221A707B68DB433A681340A9
S2140048201B0ADAB2FB685A707B68DB433A681340AF
S2140048301B0C9AB2FB685A80084B98473B687A680C
S21400484013401800BD4604B080BDC046FFFF000000
S214004850AC00010001540000B54F0000B155000047
S21400486080B58AB000AF786039602623FB18002236
S2140048701A807B68FE2B04D92D4B18002D4B9847C9
S21400488053E02D4B1B68002B04D02C4B1800294BF3
S21400489098474AE0EFF310833B613B693B62012394
S2140048A07B617B6983F31088234B1B685A1C224B61
S2140048B01A60234B1B681B6B002B2CD0214B1B78DC
S2140048C0002B28D0FF20204B984703001A001F23F8
S2140048D0FB181A703B681D4A190010001C4B9847BD
S2140048E002002623FB181A801A4B98470300BB6168
S2140048F0BB69002B0FD0BB691F22BA1812785A70FA
S2140049007B68DAB2BB691A70BB692622BA181288AD
S2140049105A80114B9847084B1B685A1E064B1A6064
S2140049203B6AFB60FB6883F31088BD460AB080BD17
S214004930E80001000154000050030020400101007F
S214004940F80300205C03002009560000FFFF00006B
S214004950D5470000B54F0000B155000090B589B0AE
S21400496000AF0200FB1D1A70FB1D1B780F2B04D92D
S214004970344B1800344B984761E0EFF31083FB602C
S214004980FB68FB6101233B613B6983F310882F4B77
S2140049901B685A1C2D4B1A602D4B1B78FA1D12787B
S2140049A09A4242D02B4B1B681B6B002B3DD02A4BE8
S2140049B000221A601A23FC18284B1800284B984728
S2140049C003002380224BFA1D12781A701923FB1855
S2140049D01F4A12781A70234B984703007B617B6945
S2140049E0002B22D01A4B1B78190003201E4B984729
S2140049F00300012B03D17B6907221A7002E07B6952
S214004A0006221A707B691A22BA1812885A807B69A5
S214004A101922BA1812785A700D4B1B780122190009
S214004A200320124B9847124B9847084B1B685A1E98
S214004A30064B1A60FB69BB60BB6883F31088BD46F3
S214004A4009B090BD78010100015400005003002019
S214004A505C030020F80300203C030020FFFF00005A
S214004A6009560000B54F0000594C0000B54B000039
S214004A70B155000090B583B000AF040008001100E7
S214004A80FB1D221C1A70BB1D021C1A707B1D0A1C03
S214004A901A70FB1D1B78082B04D91A4B18001A4BEA
S214004AA098472CE0194B1A68FB1D1B786421D31815
S214004AB05B181B78BA1D12789A4204D9144B18005A
S214004AC0114B98471BE0114B1C68FB1D1A78BB1D49
S214004AD01B78110018000F4B9847030018000B4B6B
S214004AE01A68FB1D1B787021D3185B181B78C31837
S214004AF001339C22E3189B187A1D12781A70BD4663
S214004B0003B090BD0C03010001540000F803002020
S214004B10580301000D50000090B583B000AF0200AE
S214004B20FB1D1A70BB1D0A1C1A70FB1D1B78082B78
S214004B3005D91B4B18001B4B984700232BE01A4B3C
S214004B401A68FB1D1B786421D3185B181B78BA1DE6
S214004B5012789A4205D9154B1800124B9847002335
S214004B6019E0114B1C68FB1D1A78BB1D1B78110041
S214004B7018000F4B9847030018000B4B1A68FB1DD4
S214004B801B787021D3185B181B78C31801339C223E
S214004B90E3189B181B781800BD4603B090BDC046AE
S214004BA09803010001540000F8030020E40301000C
S214004BB00D50000090B583B000AF0400080011004F
S214004BC0FB1D221C1A70BB1D021C1A707B1D0A1CC2
S214004BD01A70FB1D1B78082B04D91A4B18001A4BA9
S214004BE098472BE0194B1A68FB1D1B786421D318D5
S214004BF05B181B78BA1D12789A4204D9144B180019
S214004C00114B98471AE0114B1C68FB1D1A78BB1D08
S214004C101B78110018000F4B9847030018000B4B29
S214004C201A68FB1D1B787021D3185B181B78C318F5
S214004C309C22E3189B187A1D12781A70BD4603B0A2
S214004C4090BDC0462404010001540000F803002073
S214004C50680401000D50000090B583B000AF02005C
S214004C60FB1D1A70BB1D0A1C1A70FB1D1B78082B37
S214004C7005D91A4B18001A4B984700232AE0194BFF
S214004C801A68FB1D1B786421D3185B181B78BA1DA5
S214004C9012789A4205D9144B1800114B98470023F6
S214004CA018E0104B1C68FB1D1A78BB1D1B78110002
S214004CB018000E4B9847030018000A4B1A68FB1D95
S214004CC01B787021D3185B181B78C3189C22E31836
S214004CD09B181B781800BD4603B090BDA4040100C5
S214004CE001540000F8030020E80401000D50000005
S214004CF090B583B000AF0200FB1D1A70114B1B6805
S214004D0067229B5CFA1D12789A4204D90E4B180053
S214004D100E4B984713E00B4B1C68FB1D1B780321BA
S214004D2018000B4B984703001900064B1B687322AC
S214004D309B5CCB189C22E3189B1800221A70BD4679
S214004D4003B090BDF80300202405010001540000C4
S214004D500D50000080B500AF754B1B68002B03D1CB
S214004D60734B744A1A6006E0714B1B681B78DBB203
S214004D70012B00D1D8E0704B1A68704B1A606C4B50
S214004D801B686F4A002118006E4B9847684B1B68DB
S214004D906D4A9A81664B1B6805229A73644B1B68A2
S214004DA00022DA73624B1B68654A1A61604B1B6807
S214004DB0C82252009A615E4B1B68644A5A655C4B77
S214004DC01B6800229A655A4B1B6800225A63604B88
S214004DD09847574B1B685F4A5F499950544B1A686F
S214004DE0AC23DB00C8218900D150514B1B685B4ABD
S214004DF0012199504E4B1A6891231B015849D150F6
S214004E004B4B1B68574A9446634457495022180038
S214004E10564B9847464B1B68554A56499950444B43
S214004E201B68554A0A219954414B1B68534A0B216B
S214004E3099543F4B1B68524A0C2199543C4B1B68B3
S214004E40504A0D2199543A4B1A68FB231B017121D5
S214004E50D154374B1B684C4A72219954344B1B680B
S214004E604A4A73219954324B1B68494A7421995413
S214004E702F4B1B68474AF12199542D4B1B68464A15
S214004E80F22199542A4B1B68444AF3219954284B23
S214004E901B68434AF4219954424B9847244B1B689D
S214004EA0F422DA72224B1B68F3229A72204B1B689C
S214004EB0F2225A721E4B1B68F1221A721C4B1B6898
S214004EC07422DA711A4B1B6873229A71184B1B688E
S214004ED072225A71164B1B6871221A71144B1B688A
S214004EE00422DA70124B1B6803229A70104B1B6860
S214004EF002225A700E4B1B6801221A702A4B1B683E
S214004F00002B12D00A4B1B68164A9818264B1B68B3
S214004F1050221900154B9847054B1B68234A012160
S214004F209950234B984700E0C046BD4680BDC0461A
S214004F30F80300208839002018E000E040490020EF
S214004F40B80F000087E50000A11A0000F0F0F0F0AE
S214004F50D93E00005C050000F1F1F1F164050000A7
S214004F60F2F2F2F2140900006C050100CD520000C6
S214004F7064090000F3F3F3F3AC0F0000AD0F00007C
S214004F80AE0F0000AF0F0000B10F0000B20F000020
S214004F90B30F0000B40F0000B50F0000B60F0000FE
S214004FA0B70F000079400000580300200C090000ED
S214004FB0E142000080B500AF104B1B681B6B002B56
S214004FC001D1002316E00D4B1B68DA699023FF33EE
S214004FD09A4205D90A4B18000A4B9847002309E065
S214004FE0064B1A68054B1B68DB699B0006498C4616
S214004FF06344D3181800BD4680BDC046F8030020A1
S21400500080050100015400006809000080B582B0E8
S21400501000AF0200FB1D1A70BB1D0A1C1A70BB1DD8
S2140050201B78082B05D92A4B18002A4B98470023D3
S21400503049E0FB1D1B78002B0BD0274B1A68BB1DC5
S2140050401B786421D3185B181B78FA1D12789A42D5
S21400505005D9224B18001F4B9847002333E0BB1D91
S2140050601B78082B2AD8FB1D1B78002B26D01A4B42
S2140050701A68BB1D1B786421D3185B181B78FA1DB1
S21400508012789A421AD8144B1A68BB1D1B78403304
S2140050905B00D31808331A880F4B1968BB1D1B78A2
S2140050A07C20CB181B181B789BB2F91D0978013998
S2140050B089B24B439BB2D3189BB204E0084B18004E
S2140050C0044B984700231800BD4602B080BDC0467A
S2140050D0A805010001540000F8030020E8050100BF
S2140050E02806010080B588B000AF0200FB1D1A70CC
S2140050F05A4B1B68002B05D1594B1800594B984743
S2140051000023A7E0FB1D1B78082B05D9564B18007B
S214005110544B984700239DE0EFF31083FB60FB6839
S214005120BB6101233B613B6983F310884F4B1B68CF
S2140051305A1C4E4B1A60FB1D1A784D4B5200D35A20
S2140051401A004C4B1A604B4B1B68494A4821D3182F
S2140051505B181B78002B17D1464B1A68454B1B680B
S214005160D9B2FB1D1B78424808335B00C3180233D4
S2140051701B88DBB2CB1ADBB20133D8B23C4B4821DA
S2140051809B185B18021C1A703A4B1A681F23FB18F0
S214005190374948208A18121812781A70FB1D1A7898
S2140051A0334B5200D25AFB1D1B78314910335B003B
S2140051B0CB1804331B889A420DD9FB1D1B781800A8
S2140051C02D4B984703001800264B98471F23FB18C3
S2140051D000221A7031E0FB1D1B78254A59008A5AB6
S2140051E0013291B2224A5B009952FB1D1A78204B7D
S2140051F05200D35A1900FB1D1B781D4A08335B006A
S214005200D31802331B88CB1A7B61FB1D1B78184A08
S21400521018335B00D31806331B881A007B699A4242
S2140052200BDAFB1D1B787A69D2B291B2104A18339A
S2140052305B00D31806330A1C1A800C4B1B685A1ED8
S2140052400A4B1A60BB69BB60BB6883F310881F23D8
S214005250FB181B781800BD4608B080BDF803002078
S21400526088FA000001540000680601005003002080
S21400527068030020FC0300203D41000090B585B087
S21400528000AF0200FB1D1A70BB1D0A1C1A700E230D
S214005290FC18FB1D1A78BB1D1B7811001800094B63
S2140052A0984703002380084B1A680E23FB181B88B8
S2140052B09C21D3185B1801221A70C046BD4605B063
S2140052C090BDC0460D500000F803002080B586B0A3
S2140052D000AFF860B9607A6000237B6110E0FA687E
S2140052E07B69D318B9687A698A1812781A70BA680E
S2140052F07B69D3181B78002B07D07B6901337B6151
S2140053007A697B689A42EAD300E0C046C046BD464A
S21400531006B080BD80B582B000AF3A60FB1D021CAF
S2140053201A70BB1D0A1C1A703B68002B04D12A4B4E
S21400533018002A4B98474BE0FB1D1B78082B04D916
S214005340274B1800254B984742E0BB1D1B78002BC7
S21400535004D1244B1800214B984739E0224B1A6899
S214005360FB1D1B786421D3185B181B78BA1D1278B6
S2140053709A4209D9FB1D1B7818001C4B984703005E
S2140053801800164B984723E0FB1D1A78BB1D1B78A8
S21400539011001800164B984703001A00154B1A8088
S2140053A0154B1B68002B13D10F4B1A68114B1B882B
S2140053B09833D318181D0C4B1A68FB1D1B787021E8
S2140053C0D3185B181B781A003B6819000B4B9847DC
S2140053D0BD4602B080BDC0466C0701000154000007
S2140053E0A0070100D0070100F80300203D4100009F
S2140053F00D5000000004002058030020CD5200008D
S21400540080B582B000AF7860114B1B68002B01D0CE
S214005410104B9847104B1B68002B15D10E4B7A6823
S2140054201A600B4B1B68002B0ED0094B1B680B4AEF
S2140054309818094B1B6850221900094B9847044BD3
S2140054401B68084A01219950C046BD4602B080BD7F
S214005450F8030020E1420000580300201409000071
S214005460CD5200000C09000080B586B000AF0200E7
S214005470FB1D1A7000237B6100233B61FB1D1B781C
S214005480002B00D081E0454B1800454B984782E042
S214005490444B1B68DA697B69D3183B61414B1A6839
S2140054A03B699B004049D3185B181B78982B31D971
S2140054B03C4B1A683B699B003B49D3185B181B782A
S2140054C0A72B27D8374B1A683B699B003649D31859
S2140054D05B181A780F23FB1868321A700F23FB1814
S2140054E01A783B69D2182F4B1B689B699A4248D2A0
S2140054F02C4B1A683B699B002B498C466344D0189A
S2140055000F23FB181B7801339B001A000021274B42
S214005510984736E0234B1A683B699B002249D3180C
S2140055205B181B78012B2DD13B695A1C1D4B1B6841
S2140055309B699A420DD21B4B1A683B699B001A491D
S2140055408C466344D318082200211800174B98474E
S21400555018E0144B1B68144A944663440422002146
S2140055601800124B98470F4B1A683B699B000E4970
S2140055708C466344D3180422002118000B4B98472E
S21400558000E0C0467B6901337B61FB1D1A787B69AE
S2140055909A4200D97CE7BD4606B080BD30080100BF
S2140055A001540000F80300206809000087E50000A9
S2140055B080B500AF124B1B681B6B002B1CD0104B2A
S2140055C01B685A6901325A610D4B1B68DA69013251
S2140055D0DA610B4B1B68DA699023FF339A4207D9CE
S2140055E0074B1B6801221A62054B1B680022DA6112
S2140055F00120044B984700E0C046BD4680BDC0462B
S214005600F803002069540000B0B586B000AF020071
S214005610BB1D1A8000237B6100233B610023FB60D7
S214005620BB1D1B88FF2B0AD0BB1D1B88604A9342FC
S21400563005D0604B1800604B98470023B3E05F4BE3
S2140056401B685B6A002B18D15D4B1B68002B06D0CD
S2140056505A4B1B685A4A126892085A620DE0594B18
S2140056601A68594B1B689A4207D0544B1C68002096
S214005670564B984703009B0863620C23FB181800E0
S214005680534B9847FA68534B1B68D31A3B61FA682A
S214005690504B1A60494B1B685B6A002B44D0474B43
S2140056A01B685A6A3B699A421ED2444B1C68434B9D
S2140056B01B68DD6A414B1B685A6A474B1100386904
S2140056C098470300EB18E3623C4B1C683B4B1B6897
S2140056D09D6A3A4B1B68596A3A69404B10009847D6
S2140056E00B00EB18A36207E0344B1B68334A1268C2
S2140056F0916A3A698A189A62304B1B689A6A2F4BED
S2140057001B685B6A9A4213D32C4B1B68DA6A013219
S214005710DA622A4B1B68294A1268916A274A12687D
S214005720526A8A1A9A6203E0244B1B68FA689A62E5
S214005730BB1D1A883B699A422FD2294B9847030013
S2140057407B617B69002B28D0BB1D1B88184A9342BF
S2140057500BD17B69A9221A703B691B0C9AB27B6934
S2140057605A807B6900225A7015E0BB1D1B88FF2BF0
S2140057700DD17B69A8221A703B691B0A9AB27B6915
S2140057805A803B691B0EDAB27B695A7003E0154BF0
S2140057901800094B9847144B98473B699BB2BA1DB3
S2140057A0128813409BB21800BD4606B0B0BDC04676
S2140057B0FFFF00008808010001540000F8030020E5
S2140057C05403002018E000E0404900208DBD000092
S2140057D0ED5700000404002015C7000021C8000093
S2140057E0B54F0000C8080100B155000080B584B070
S2140057F000AF78600023BB600023FB602D4B1B6866
S214005800012B07D17B68002B4FD02B4B1A687B6887
S2140058101A604AE0294B1A68294B1B68D31A0133D1
S214005820BB60284B1A68284B1B68D31A013B002B19
S21400583003DB244B1B68FB6002E0234B1B68FB600A
S214005840204B1B68FA689A4207D1204B1B68BA683F
S2140058509A4202D2FB680133FB607B68002B16D0AD
S214005860164B1B6801339B08FA685A43124B1A60A2
S214005870124B1B68013303221340FA685A43BB6875
S214005880D3189A080C4B1B68D2180B4B1A600D4B9A
S214005890FA681A607B68002B03D0074B1A687B688F
S2140058A01A600A4BBA681A6000E0C046BD4604B0EB
S2140058B080BDC046440300204803002014E000E0FA
S2140058C018E000E008040020400300200C0400203C
